019  00100000000000000001044                    202004161549202004161549202004161549                              000000000000000000000000000000000000000000000000000023452238000153086788920001960867889200019608678892000196                                               CIF
021  5  1  CD  0252020051100000000031350000100
04000200002   EN 07898187880149               ARGAMASSA AC1 20KG PRECON                    EA 00001000000000500000000000000000000000000000000000   00000
04000300003   EN 00000000168915ARGAMASSA AC2 20KG PRECON (RETIRA MATRIZ                    EA 00001000000000850000000000000000000000000000000000   00000
04000500005   EN 00000000168939ARGAMASSA AC3 20KG PRECON (RETIRA MATRIZ                    EA 00001000000000300000000000000000000000000000000000   00000
04000100001   EN 00000000168892ARGAMASSA AC1 20KG PRECON (RETIRA MATRIZ                    EA 00001000000000500000000000000000000000000000000000   00000
04000700007   EN 07898187880392ARGAMASSA PORCELANATO INTERNA 20KG PRECO                    EA 00001000000000200000000000000000000000000000000000   00000
04000600006   EN 07898187880163               ARGAMASSA AC3 20KG PRECON                    EA 00001000000000300000000000000000000000000000000000   00000
04000400004   EN 07898187880156               ARGAMASSA AC2 20KG PRECON                    EA 00001000000000850000000000000000000000000000000000   00000
09000000000000000000000002961000000000000000000000000000000000000000000000000000000000000000000000000000000000000002961000019  00100000000000000001044                    202004161549202004161549202004161549                              000000000000000000000000000000000000000000000000000023452238000153086788920001960867889200019608678892000196                                               CIF
021  5  1  CD  0252020051100000000031350000100
04000100001   EN 00000000168892ARGAMASSA AC1 20KG PRECON (RETIRA MATRIZ                    EA 00001000000000500000000000000000000000000000000000   00000
04000200002   EN 07898187880149               ARGAMASSA AC1 20KG PRECON                    EA 00001000000000500000000000000000000000000000000000   00000
04000300003   EN 00000000168915ARGAMASSA AC2 20KG PRECON (RETIRA MATRIZ                    EA 00001000000000850000000000000000000000000000000000   00000
04000400004   EN 07898187880156               ARGAMASSA AC2 20KG PRECON                    EA 00001000000000850000000000000000000000000000000000   00000
04000700007   EN 07898187880392ARGAMASSA PORCELANATO INTERNA 20KG PRECO                    EA 00001000000000200000000000000000000000000000000000   00000
04000500005   EN 00000000168939ARGAMASSA AC3 20KG PRECON (RETIRA MATRIZ                    EA 00001000000000300000000000000000000000000000000000   00000
04000600006   EN 07898187880163               ARGAMASSA AC3 20KG PRECON                    EA 00001000000000300000000000000000000000000000000000   00000
09000000000000000000000002961000000000000000000000000000000000000000000000000000000000000000000000000000000000000002961000019  00100000000000000001044                    202004161549202004161549202004161549                              000000000000000000000000000000000000000000000000000023452238000153086788920001960867889200019608678892000196                                               CIF
021  5  1  CD  0252020051100000000031350000100
04000100001   EN 00000000168892ARGAMASSA AC1 20KG PRECON (RETIRA MATRIZ                    EA 00001000000000500000000000000000000000000000000000   00000
04000200002   EN 07898187880149               ARGAMASSA AC1 20KG PRECON                    EA 00001000000000500000000000000000000000000000000000   00000
04000400004   EN 07898187880156               ARGAMASSA AC2 20KG PRECON                    EA 00001000000000850000000000000000000000000000000000   00000
04000300003   EN 00000000168915ARGAMASSA AC2 20KG PRECON (RETIRA MATRIZ                    EA 00001000000000850000000000000000000000000000000000   00000
04000600006   EN 07898187880163               ARGAMASSA AC3 20KG PRECON                    EA 00001000000000300000000000000000000000000000000000   00000
04000700007   EN 07898187880392ARGAMASSA PORCELANATO INTERNA 20KG PRECO                    EA 00001000000000200000000000000000000000000000000000   00000
09000000000000000000000002961000000000000000000000000000000000000000000000000000000000000000000000000000000000000002961000
04000500005   EN 00000000168939ARGAMASSA AC3 20KG PRECON (RETIRA MATRIZ                    EA 00001000000000300000000000000000000000000000000000   00000019  00100000000000000001044                    202004161549202004161549202004161549                              000000000000000000000000000000000000000000000000000023452238000153086788920001960867889200019608678892000196                                               CIF
021  5  1  CD  0252020051100000000031350000100
04000200002   EN 07898187880149               ARGAMASSA AC1 20KG PRECON                    EA 00001000000000500000000000000000000000000000000000   00000
04000100001   EN 00000000168892ARGAMASSA AC1 20KG PRECON (RETIRA MATRIZ                    EA 00001000000000500000000000000000000000000000000000   00000
04000500005   EN 00000000168939ARGAMASSA AC3 20KG PRECON (RETIRA MATRIZ                    EA 00001000000000300000000000000000000000000000000000   00000
04000300003   EN 00000000168915ARGAMASSA AC2 20KG PRECON (RETIRA MATRIZ                    EA 00001000000000850000000000000000000000000000000000   00000
04000600006   EN 07898187880163               ARGAMASSA AC3 20KG PRECON                    EA 00001000000000300000000000000000000000000000000000   00000
09000000000000000000000002961000000000000000000000000000000000000000000000000000000000000000000000000000000000000002961000
04000700007   EN 07898187880392ARGAMASSA PORCELANATO INTERNA 20KG PRECO                    EA 00001000000000200000000000000000000000000000000000   00000
04000400004   EN 07898187880156               ARGAMASSA AC2 20KG PRECON                    EA 00001000000000850000000000000000000000000000000000   00000019  00100000000000000001044                    202004161549202004161549202004161549                              000000000000000000000000000000000000000000000000000023452238000153086788920001960867889200019608678892000196                                               CIF
021  5  1  CD  0252020051100000000031350000100
04000100001   EN 00000000168892ARGAMASSA AC1 20KG PRECON (RETIRA MATRIZ                    EA 00001000000000500000000000000000000000000000000000   00000
04000200002   EN 07898187880149               ARGAMASSA AC1 20KG PRECON                    EA 00001000000000500000000000000000000000000000000000   00000
04000400004   EN 07898187880156               ARGAMASSA AC2 20KG PRECON                    EA 00001000000000850000000000000000000000000000000000   00000
04000500005   EN 00000000168939ARGAMASSA AC3 20KG PRECON (RETIRA MATRIZ                    EA 00001000000000300000000000000000000000000000000000   00000
04000600006   EN 07898187880163               ARGAMASSA AC3 20KG PRECON                    EA 00001000000000300000000000000000000000000000000000   00000
09000000000000000000000002961000000000000000000000000000000000000000000000000000000000000000000000000000000000000002961000
04000700007   EN 07898187880392ARGAMASSA PORCELANATO INTERNA 20KG PRECO                    EA 00001000000000200000000000000000000000000000000000   00000
04000300003   EN 00000000168915ARGAMASSA AC2 20KG PRECON (RETIRA MATRIZ                    EA 00001000000000850000000000000000000000000000000000   00000019  00100000000000000001044                    202004161549202004161549202004161549                              000000000000000000000000000000000000000000000000000023452238000153086788920001960867889200019608678892000196                                               CIF
021  5  1  CD  0252020051100000000031350000100
04000200002   EN 07898187880149               ARGAMASSA AC1 20KG PRECON                    EA 00001000000000500000000000000000000000000000000000   00000
04000100001   EN 00000000168892ARGAMASSA AC1 20KG PRECON (RETIRA MATRIZ                    EA 00001000000000500000000000000000000000000000000000   00000
04000400004   EN 07898187880156               ARGAMASSA AC2 20KG PRECON                    EA 00001000000000850000000000000000000000000000000000   00000
04000500005   EN 00000000168939ARGAMASSA AC3 20KG PRECON (RETIRA MATRIZ                    EA 00001000000000300000000000000000000000000000000000   00000
04000700007   EN 07898187880392ARGAMASSA PORCELANATO INTERNA 20KG PRECO                    EA 00001000000000200000000000000000000000000000000000   00000
04000600006   EN 07898187880163               ARGAMASSA AC3 20KG PRECON                    EA 00001000000000300000000000000000000000000000000000   00000
04000300003   EN 00000000168915ARGAMASSA AC2 20KG PRECON (RETIRA MATRIZ                    EA 00001000000000850000000000000000000000000000000000   00000
09000000000000000000000002961000000000000000000000000000000000000000000000000000000000000000000000000000000000000002961000019  00100000000000000001044                    202004161549202004161549202004161549                              000000000000000000000000000000000000000000000000000023452238000153086788920001960867889200019608678892000196                                               CIF
021  5  1  CD  0252020051100000000031350000100
04000100001   EN 00000000168892ARGAMASSA AC1 20KG PRECON (RETIRA MATRIZ                    EA 00001000000000500000000000000000000000000000000000   00000
04000400004   EN 07898187880156               ARGAMASSA AC2 20KG PRECON                    EA 00001000000000850000000000000000000000000000000000   00000
04000500005   EN 00000000168939ARGAMASSA AC3 20KG PRECON (RETIRA MATRIZ                    EA 00001000000000300000000000000000000000000000000000   00000
04000200002   EN 07898187880149               ARGAMASSA AC1 20KG PRECON                    EA 00001000000000500000000000000000000000000000000000   00000
04000600006   EN 07898187880163               ARGAMASSA AC3 20KG PRECON                    EA 00001000000000300000000000000000000000000000000000   00000
04000700007   EN 07898187880392ARGAMASSA PORCELANATO INTERNA 20KG PRECO                    EA 00001000000000200000000000000000000000000000000000   00000
09000000000000000000000002961000000000000000000000000000000000000000000000000000000000000000000000000000000000000002961000
04000300003   EN 00000000168915ARGAMASSA AC2 20KG PRECON (RETIRA MATRIZ                    EA 00001000000000850000000000000000000000000000000000   00000019  00100000000000000001044                    202004161549202004161549202004161549                              000000000000000000000000000000000000000000000000000023452238000153086788920001960867889200019608678892000196                                               CIF
021  5  1  CD  0252020051100000000031350000100
04000200002   EN 07898187880149               ARGAMASSA AC1 20KG PRECON                    EA 00001000000000500000000000000000000000000000000000   00000
04000100001   EN 00000000168892ARGAMASSA AC1 20KG PRECON (RETIRA MATRIZ                    EA 00001000000000500000000000000000000000000000000000   00000
04000300003   EN 00000000168915ARGAMASSA AC2 20KG PRECON (RETIRA MATRIZ                    EA 00001000000000850000000000000000000000000000000000   00000
04000400004   EN 07898187880156               ARGAMASSA AC2 20KG PRECON                    EA 00001000000000850000000000000000000000000000000000   00000
04000500005   EN 00000000168939ARGAMASSA AC3 20KG PRECON (RETIRA MATRIZ                    EA 00001000000000300000000000000000000000000000000000   00000
04000600006   EN 07898187880163               ARGAMASSA AC3 20KG PRECON                    EA 00001000000000300000000000000000000000000000000000   00000
04000700007   EN 07898187880392ARGAMASSA PORCELANATO INTERNA 20KG PRECO                    EA 00001000000000200000000000000000000000000000000000   00000
09000000000000000000000002961000000000000000000000000000000000000000000000000000000000000000000000000000000000000002961000019  00100000000000000001044                    202004161549202004161549202004161549                              000000000000000000000000000000000000000000000000000023452238000153086788920001960867889200019608678892000196                                               CIF
021  5  1  CD  0252020051100000000031350000100
04000100001   EN 00000000168892ARGAMASSA AC1 20KG PRECON (RETIRA MATRIZ                    EA 00001000000000500000000000000000000000000000000000   00000
04000200002   EN 07898187880149               ARGAMASSA AC1 20KG PRECON                    EA 00001000000000500000000000000000000000000000000000   00000
04000300003   EN 00000000168915ARGAMASSA AC2 20KG PRECON (RETIRA MATRIZ                    EA 00001000000000850000000000000000000000000000000000   00000
04000400004   EN 07898187880156               ARGAMASSA AC2 20KG PRECON                    EA 00001000000000850000000000000000000000000000000000   00000
04000700007   EN 07898187880392ARGAMASSA PORCELANATO INTERNA 20KG PRECO                    EA 00001000000000200000000000000000000000000000000000   00000
04000600006   EN 07898187880163               ARGAMASSA AC3 20KG PRECON                    EA 00001000000000300000000000000000000000000000000000   00000
04000500005   EN 00000000168939ARGAMASSA AC3 20KG PRECON (RETIRA MATRIZ                    EA 00001000000000300000000000000000000000000000000000   00000
09000000000000000000000002961000000000000000000000000000000000000000000000000000000000000000000000000000000000000002961000019  00100000000000000001044                    202004161549202004161549202004161549                              000000000000000000000000000000000000000000000000000023452238000153086788920001960867889200019608678892000196                                               CIF
021  5  1  CD  0252020051100000000031350000100
04000100001   EN 00000000168892ARGAMASSA AC1 20KG PRECON (RETIRA MATRIZ                    EA 00001000000000500000000000000000000000000000000000   00000
04000200002   EN 07898187880149               ARGAMASSA AC1 20KG PRECON                    EA 00001000000000500000000000000000000000000000000000   00000
04000400004   EN 07898187880156               ARGAMASSA AC2 20KG PRECON                    EA 00001000000000850000000000000000000000000000000000   00000
04000600006   EN 07898187880163               ARGAMASSA AC3 20KG PRECON                    EA 00001000000000300000000000000000000000000000000000   00000
04000500005   EN 00000000168939ARGAMASSA AC3 20KG PRECON (RETIRA MATRIZ                    EA 00001000000000300000000000000000000000000000000000   00000
04000700007   EN 07898187880392ARGAMASSA PORCELANATO INTERNA 20KG PRECO                    EA 00001000000000200000000000000000000000000000000000   00000
09000000000000000000000002961000000000000000000000000000000000000000000000000000000000000000000000000000000000000002961000
04000300003   EN 00000000168915ARGAMASSA AC2 20KG PRECON (RETIRA MATRIZ                    EA 00001000000000850000000000000000000000000000000000   00000019  00100000000000000001044                    202004161549202004161549202004161549                              000000000000000000000000000000000000000000000000000023452238000153086788920001960867889200019608678892000196                                               CIF
021  5  1  CD  0252020051100000000031350000100
04000100001   EN 00000000168892ARGAMASSA AC1 20KG PRECON (RETIRA MATRIZ                    EA 00001000000000500000000000000000000000000000000000   00000
04000200002   EN 07898187880149               ARGAMASSA AC1 20KG PRECON                    EA 00001000000000500000000000000000000000000000000000   00000
04000300003   EN 00000000168915ARGAMASSA AC2 20KG PRECON (RETIRA MATRIZ                    EA 00001000000000850000000000000000000000000000000000   00000
04000400004   EN 07898187880156               ARGAMASSA AC2 20KG PRECON                    EA 00001000000000850000000000000000000000000000000000   00000
04000600006   EN 07898187880163               ARGAMASSA AC3 20KG PRECON                    EA 00001000000000300000000000000000000000000000000000   00000
04000700007   EN 07898187880392ARGAMASSA PORCELANATO INTERNA 20KG PRECO                    EA 00001000000000200000000000000000000000000000000000   00000
09000000000000000000000002961000000000000000000000000000000000000000000000000000000000000000000000000000000000000002961000
04000500005   EN 00000000168939ARGAMASSA AC3 20KG PRECON (RETIRA MATRIZ                    EA 00001000000000300000000000000000000000000000000000   00000