019  00100000000000000001287                    202006080928202006080928202006080928                              000000000000000000000000000000000000000000000000000060872306004661086788920001960867889200019608678892000196                                               CIF
021  5  1  CD  0682020081500000000093441200100
04000100001   EN 00000000242943TINTA ACRILICA FOSCO KEM TONE 18L CAMURC                    EA 00001000000000003000000000000000000000000000000000   00000
04000200002   EN 00000000246361   TINTA ACRILICA NOVACOR PISO 3,6L AZUL                    EA 00001000000000004000000000000000000000000000000000   00000
04000500005   EN 00000000242950TINTA ACRILICA FOSCO KEM TONE 18L BRANCO                    EA 00001000000000040000000000000000000000000000000000   00000
04000400004   EN 00000000246262  TINTA ACRILICA NOVACOR PISO 3,6L VERDE                    EA 00001000000000004000000000000000000000000000000000   00000
04000600006   EN 00000000246774TINTA ACRILICA FOSCO NOVACOR EXTRA 18L C                    EA 00001000000000005000000000000000000000000000000000   00000
04000800008   EN 00000000246811TINTA ACRILICA FOSCO NOVACOR EXTRA 18L P                    EA 00001000000000004000000000000000000000000000000000   00000
04000700007   EN 00000000246934  TINTA ACRILICA NOVACOR PISO 18L BRANCO                    EA 00001000000000010000000000000000000000000000000000   00000
04000300003   EN 00000000246309TINTA ACRILICA NOVACOR PISO 3,6L CONCRET                    EA 00001000000000008000000000000000000000000000000000   00000
04001100011   EN 00000000246347TINTA ACRILICA NOVACOR PISO 3,6L VERMELH                    EA 00001000000000008000000000000000000000000000000000   00000
04001200012   EN 00000000243216TINTA ACRILICA FOSCO KEM TONE 3,6L VERDE                    EA 00001000000000004000000000000000000000000000000000   00000
04000900009   EN 00000000255752TINTA ACRILICA NOVACOR PISO 3,6L CINZA C                    EA 00001000000000008000000000000000000000000000000000   00000
04001000010   EN 00000000246323  TINTA ACRILICA NOVACOR PISO 3,6L PRETO                    EA 00001000000000012000000000000000000000000000000000   00000
04001400014   EN 00000000246873    TINTA ACRILICA NOVACOR PISO 18L AZUL                    EA 00001000000000003000000000000000000000000000000000   00000
04001300013   EN 00000000246293TINTA ACRILICA NOVACOR PISO 3,6L AMARELO                    EA 00001000000000004000000000000000000000000000000000   00000
04001500015   EN 00000000246927   TINTA ACRILICA NOVACOR PISO 18L CINZA                    EA 00001000000000020000000000000000000000000000000000   00000
04001700017   EN 00000000240468ESMALTE SINTETICO ACETINADO 3,6L BRANCO                     EA 00001000000000004000000000000000000000000000000000   00000
04001600016   EN 00000000246903TINTA ACRILICA NOVACOR PISO 18L CONCRETO                    EA 00001000000000012000000000000000000000000000000000   00000
04001900019   EN 00000000240666ESMALTE SINTETICO ALTO BR. 3,6L CINZA ME                    EA 00001000000000004000000000000000000000000000000000   00000
04001800018   EN 00000000255820ESMALTE SINTETICO ALTO BR. 3,6L BRANCO N                    EA 00001000000000012000000000000000000000000000000000   00000
04002100021   EN 00000000251105VERNIZ MARITIMO BRILHO MOGNO 0,9L SHERWI                    EA 00001000000000012000000000000000000000000000000000   00000
04002000020   EN 00000000255875VERNIZ COPAL BRILHO INCOLOR 0,9L SHERWIM                    EA 00001000000000048000000000000000000000000000000000   00000
04002300023   EN 00000000248945SELADORA PARA MADEIRA INCOLOR 3,6L SHERW                    EA 00001000000000004000000000000000000000000000000000   00000
04002200022   EN 00000000251167VERNIZ MARITIMO BRILHO IMBUIA 0,9L SHERW                    EA 00001000000000006000000000000000000000000000000000   00000
04002400024   EN 00000000249119    SELADOR ACRILICO METALATEX GALAO 18L                    EA 00001000000000025000000000000000000000000000000000   00000
04002500025   EN 00000000245555     MASSA CORRIDA GALAO 6,1KG METALATEX                    EA 00001000000000024000000000000000000000000000000000   00000
04002700027   EN 00000000240475ESMALTE SINTETICO ACETINADO 3,6L CERAMIC                    EA 00001000000000004000000000000000000000000000000000   00000
04002900029   EN 00000000255394TINTA ACRILICA ACETINADO NOVACOR EXTRA 1                    EA 00001000000000006000000000000000000000000000000000   00000
04003000030   EN 00000000252812TINTA ACRILICA ACETINADO NOVACOR EXTRA 1                    EA 00001000000000003000000000000000000000000000000000   00000
04002600026   EN 00000000247016TINTA ACRILICA METALATEX ACETINADA REQUI                    EA 00001000000000002000000000000000000000000000000000   00000
04003100031   EN 00000000247573TINTA ACRILICA FOSCO NOVACOR GESSO E DRY                    EA 00001000000000010000000000000000000000000000000000   00000
04002800028   EN 00000000246675TINTA ACRILICA ACETINADO NOVACOR EXTRA 1                    EA 00001000000000010000000000000000000000000000000000   00000
04003200032   EN 00000000241229ESMALTE SINTETICO A.BRILHO 3,6L AZUL FRA                    EA 00001000000000004000000000000000000000000000000000   00000
04003300033   EN 00000000241656ESMALTE SINTETICO FOSCO 3,6L BRANCO META                    EA 00001000000000008000000000000000000000000000000000   00000
04003400034   EN 00000000243094TINTA ACRILICA FOSCO NOVACOR EXTRA 18L A                    EA 00001000000000008000000000000000000000000000000000   00000
09000000000000000000000002803412000000000000000000000000000000000000000000000000000000000000000000000000000000000002803412